:020000040000FA
:1000000080313328633008007E1480310B1F0928AB
:100010000A2831282100921D0E280F2818282000B8
:10002000921D132814281828893165218031312820
:100030002100911D1C281D2823282000911D212806
:100040002228232814282100931C27282828312817
:100050002000931C2C282D2831289731DC27803153
:1000600031287E1009008031352824308400883002
:100070008500623086000030870009308831072013
:100080008031CB30840089308500483086000130D3
:1000900087001530883107208031E43084008B30B0
:1000A0008500A03086000230870036308831072076
:1000B0008031023084008B3085002030860004308F
:1000C00087002830883107208031EB01EC01ED01F9
:1000D000EE01EF01D9308400003085001430883102
:1000E000012080315D30840001308500103088317E
:1000F00001208031A03084000130850040308831FB
:100100000120803120308400023085003930883170
:100110000120803120308400033085003B3088315D
:1001200001208031A03084000330850036308831D2
:100130000120803148308400043085001B30883134
:1001400001208031A03084000430850039308831AE
:10015000012080317E102000883157285C2A8831A8
:10016000872080312000E00060082200E700670857
:10017000083E860001308700403FF000413FF1001B
:100180009731E82780314C302000A0000830A100D2
:100190005230A2000A30A3008D31F62580312000B4
:1001A0002030860000308700C03084000130850098
:1001B0002030E00016001A00E00BDA284130A000E1
:1001C0000830A1003830A2000A30A3008D31F62596
:1001D000803120002030860000308700A03084006D
:1001E000013085002030E00016001A00E00BF428F2
:1001F000220067082000E0006008F0000430C03EE4
:10020000860001308700413F8A00403F0A0081316B
:10021000D7302000A0001730A1000030A20000302D
:10022000A300FD30A4000730A500CB30A600173096
:10023000A700D330A8001730A9002230AA000A3046
:10024000AB00A130AC000830AD0087316C278031A5
:1002500020002030860000308700203084000230EB
:1002600085003930E00016001A00E00B3329003019
:10027000F2000930F30088319420803122006708B1
:100280002000E0006008F0000E30203E86000230C2
:100290008700413F8A00403F0A0081312030200022
:1002A000E0006008F4000430203E86000230870041
:1002B000413F8A00403F0A00813180310220803175
:1002C0002000E00060082200E600203086000430B4
:1002D0008700203084000130850028302000E000B5
:1002E00016001A00E00B70292030E0006008FC00C6
:1002F0002830E1006108FD0022006608053E860006
:1003000087010108860002308700413F8A00403F94
:100310000A00813120302000E00022006608043EFF
:100320008600870120006008810022006708200005
:10033000E0006008F00022006608023E86008701A7
:10034000413F8A00403F0A008131C0302000E00078
:100350006008F00022006C08F2006B08F100023027
:10036000C03E860001308700413F8A00403F0A00BE
:100370008131A0302000E0006008F00022006A080F
:10038000F2006908F1000230A03E860001308700CB
:10039000413F8A00403F0A0081318A31C0228031CA
:1003A0002200E801E80A6E2A220067080A3E860059
:1003B00001308700413F8A00403F0A0081312030F0
:1003C0002000E0006008F7000830203E8600023080
:1003D0008700413F8A00403F0A00813122006608C1
:1003E00086008701413F8A00403F0A008131C030CA
:1003F0002000E0006008AE001030C03E86000130F2
:100400008700413F8A00403F0A008231A03020002F
:10041000E0006008AE001030A03E8600013087008A
:10042000413F8A00403F0A008231220065086C0685
:10043000031D1C2A64086B0603191F2A202A382A68
:100440006C08E5006B08E400C0302000E0006008A4
:10045000F00022006C08F2006B08F1000230C03E90
:10046000860001308700413F8A00403F0A00823108
:10047000220063086A06031D3F2A62086906031901
:10048000422A432A6E2A6A08E3006908E200A03083
:100490002000E0006008F00022006A08F20069080D
:1004A000F1000230A03E860001308700413F8A0003
:1004B000403F0A0082316E2A220068082000E000D6
:1004C000E1016108003A0319662A6E2A6008003AC1
:1004D0000319AF28013A0319D4296E2A8931B621AC
:1004E000803108008A2B2E08173E860001308700D5
:1004F0000108031D7C2A7D2A942AF430AC000130C7
:10050000AD002E08143E860001308700413F8A006E
:10051000403F0A00823120002E08183E860001303C
:1005200087008101810AA62B2E081F3E860001301C
:100530008700010803199D2A9E2AA62B2E081F3E1C
:1005400086000130870081012E08193E86000130A7
:100550008700403FA600413FA7008E319C26823194
:1005600020002708AD002608AC002E08143E8600A7
:1005700001308700413F8A00403F0A008231A62BAC
:100580002E08173E86000130870001080319C92A8A
:10059000CA2AA62B2E08193E860001308700403F4C
:1005A000A600413FA7008E319C26823120002708FB
:1005B000AD002608AC002E08143E860001308700EE
:1005C000413F8A00403F0A00823120002E08183E39
:1005D0008600013087008101A62B2E081B3E860075
:1005E00001308700403FAF00413FB000423FB100C3
:1005F000433FB2006F08860001308700403FB300E0
:10060000413FB400423FB500433FB6002F08B3025C
:100610003008B43B3108B53B3208B63B3608031D01
:100620001D2B3508031D1D2B3408031D1D2B033006
:100630003302031C1C2B1D2BA62B2E088600013019
:1006400087000130563FF0002E08123E8600013030
:100650008700413F8A00403F0A00833120006F0835
:10066000860001308700403FAF00413FB000423F6D
:10067000B100433FB2002E081B3E860001308700C8
:100680002F08C03F3008C13F3108C23F3208C33F86
:100690000330AF002E08183E8600013087002F0877
:1006A0008100A62B2E081B3E860001308700403FAC
:1006B000AF00413FB000423FB100433FB2006F087E
:1006C000860001308700403FB300413FB400423F05
:1006D000B500433FB6002F08B3023008B43B3108E1
:1006E000B53B3208B63B3608031D822B3508031D87
:1006F000822B3408031D822B03303302031C812B11
:10070000822BA62B2E08183E86000130870081011F
:10071000810AA62B20002E08183E86000130870093
:100720000108AF00B0013008003A0319982BA62B3E
:100730002F08003A0319732A013A0319C02A033A11
:100740000319ED2A013A0319522BA62B0800702C2D
:100750008A31DD22833102302000B8003808EC00F5
:10076000872C8B312A23833178087904031DB92B18
:10077000BA2BBF2B03302000B8003808EC00200053
:100780006708B8003808F00067080C3E86000230A1
:100790008700413F8A00403F0A008331003A031935
:1007A000D22BD32BEF2B8A31DD22833189311F21CC
:1007B00083318B312A23833178087904031DE12B9F
:1007C000E22BE82B03302000B8003808EC00EB2BBC
:1007D0002000EC01EC0A863108268331872C2000AA
:1007E0006B08860001308700403FB800413FB900E8
:1007F000423FBA00433FBB00210059082000B80225
:1008000021005A082000B93B21005B082000BA3BB8
:1008100021005C082000BB3B3B08031D1A2C3A0852
:10082000031D1A2CE93038020330393B031C192C04
:100830001A2C872CE9156708B8003808F5006708F6
:10084000103E860002308700413F8A00403F0A0088
:1008500084312000EC01872C6708B8003808F000CC
:1008600067080A3E860002308700413F8A00403F09
:100870000A008431003A03193E2C3F2C432C8A3164
:10088000DD228331292C20006B088600013087008F
:10089000403FB800413FB900423FBA00433FBB0070
:1008A000210059082000B80221005A082000B93B55
:1008B00021005B082000BA3B21005C082000BB3B04
:1008C0003B08031D6E2C3A08031D6E2C2D30380298
:1008D0000130393B031C6D2C6E2C872C69161B2CA8
:1008E00020006C08B800B9013908003A0319792CC6
:1008F000872C3808003A0319A82B013A0319B12BA9
:10090000033A0319BF2B013A03192C2C872C08003A
:1009100071082D3E860002308700403FF200413FC3
:10092000F3007308803AF40080307402031D9A2C9F
:1009300001307202031C9D2C9E2CE02C7108253E78
:10094000860002308700413F8A00403F0A00843120
:10095000F2007108363E86000230870001088600EA
:100960008701720881000130F2007108363E86006E
:10097000023087007208810771082D3E8600023020
:100980008700FF3081074131FF30813D7F317108A1
:100990002D3E86000230870016000104031DD12C75
:1009A000D22CF22C7108313E86000230870081166D
:1009B0007108383E8600023087008101810AF22CDE
:1009C0007108253E860002308700413F8A00403F83
:1009D0000A008431F20071081E3E86000230870052
:1009E0007208810071082F3E860002308700403F68
:1009F000F200413FF3007308803AF4008030740243
:100A0000031D042D01307202031C072D082D3C2DFF
:100A10007108373E860002308700403F8400850120
:100A2000810A0008F2007208F0007108273E860073
:100A300002308700413F8A00403F0A00853171083B
:100A40002F3E860002308700FF3081074131FF30A2
:100A5000813D7F3171082F3E8600023087001600ED
:100A60000104031D342D352D4A2D7108313E8600B9
:100A70000230870001164A2DFF30F2007208F000A4
:100A80007108273E860002308700413F8A00403FC0
:100A90000A00853108007708313E86000230870061
:100AA000011C532D542D072E7708313E860002304D
:100AB0008700811E5C2D5D2D692D7708143E860010
:100AC00002308700403FF000413FF10088310020B4
:100AD00085317708313E860002308700011E712D76
:100AE000722D7E2D7708163E860002308700403F2B
:100AF000F000413FF1008831002085317708313E18
:100B0000860002308700011F862D872D932D7708E0
:100B1000183E860002308700403FF000413FF10060
:100B200088310020853177082F3E8600023087000B
:100B300077082D3E840002308500403F00072000EA
:100B4000A0000131413F003DA1002108803AA200F0
:100B500080302202031DAE2D01302002031CB12D76
:100B6000B22DFD2D7708323E860002308700403FCF
:100B70002000A000413FA100423FA200433FA3004C
:100B80006D08860001308700403FA400413FA5006A
:100B9000423FA600433FA7002008A4022108A53B2E
:100BA0002208A63B2308A73B2708031DE22D2608A1
:100BB000031DE22D893024021330253B031CE12D57
:100BC000E22DFD2D77081A3E860002308700403F57
:100BD000F000413FF1008831002085317708200086
:100BE000A0002008F5007708103E8600023087003C
:100BF000413F8A00403F0A0085310F302000A000AD
:100C00007708313E86000230870020088105080001
:100C10002000E901EA010430B5003508F000E830B1
:100C20008A316C22863121006C060319182E192E88
:100C30001F2E2000691489312F218631BE2E680CA9
:100C40000F3920006206031D262E272E372EE914A9
:100C50006430B50035082100E4000230E5000030C2
:100C6000E60010302000B5003508E200A62E210075
:100C7000680C0F392000B5003508E2002100690832
:100C80002000B5003508FC003430A03E860002305C
:100C90008700413F8A00403F0A0086312000B600AD
:100CA0003608B70037080319562E572EA52E2100F7
:100CB000681C5B2E5C2E842E2000370886000230D4
:100CC0008700160001040319662E672E712E37085F
:100CD000860002308700413F8A00403F0A0086318B
:100CE000A62E3708023E860002308700403FB5003E
:100CF000413FB600350886003608870021006A08A3
:100D0000C03F6B08C13FA62E200037088600023086
:100D1000870016000104031D8E2E8F2EA52E2100A4
:100D2000631420003708023E860002308700403FEF
:100D3000B500413FB6003508860036088700403FC1
:100D40002100E500413FE600A62E69152000690854
:100D50006A040319AC2EAD2EB02E893140218631A4
:100D600004302000B5003508F000E3308A316C22F1
:100D700086312000B60036082100E7000800F600A2
:100D80007608F4007408F90072087304031DC92E74
:100D9000CA2ECB2E6B2F7008F40079088600023023
:100DA0008700740881007008F40072087907F50064
:100DB0007508FF3E8600023087007408810000300D
:100DC00073020330031972020318E72EE82EE92E8E
:100DD0006B2F7008F400790A8600023087007408CF
:100DE00081007008F4007908023E86000230870016
:100DF000740881007008F40072087907F50075081E
:100E0000FE3E860002308700740881007008F400FE
:100E100072087907F5007508FD3E860002308700EC
:100E2000740881000030730207300319720203183E
:100E30001A2F1B2F1C2F6B2F7008F4007908033E0C
:100E4000860002308700740881007008F400720880
:100E50007907F5007508FC3E8600023087007408AB
:100E60008100003073020930031972020318392F10
:100E70003A2F3B2F6B2F7909F4007A09F500F40A19
:100E80000319F50A03307405F70000307505F80002
:100E90007708F4007408F9077708F2027808F33B42
:100EA000FC30F205FF30F305652F7008F400790877
:100EB000860002308700740881000130F2020030A1
:100EC000F33B0130F4007408F90772087304031D42
:100ED0006A2F6B2F552F0800A03086000430870042
:100EE000A0308400003085003930F00016001A0070
:100EF000F00B762FA6302100A0000D30A1000530A8
:100F0000A2000F30A3000C30A4000A30A50000306E
:100F1000A6000030A7004B30A8000530A900E4303F
:100F2000AA000830AB008D30AC000930AD00FA30BB
:100F3000AE001730AF00CA30B0000C30B1008830BE
:100F4000B2000430B3008D30BC000C30BD00200076
:100F500021082100C000200020082100BF0020003F
:100F600023082100C200200022082100C100200027
:100F70002B082100C40020002A082100C300200003
:100F800025082100C600200024082100C5002000FB
:100F900027082100C800200026082100C7002000E3
:100FA00029082100CA00200028082100C9002000CB
:100FB0002D082100CC0020002C082100CB00D101FD
:100FC00020006D08860001308700403F2100D200DC
:100FD000413FD300423FD400433FD500A0308600BC
:100FE0000030870020308400003085003930F00068
:100FF00016001A00F00BF82F080024001108080052
:101000000800640080010131890B02280034FE00D1
:1010100012001E00FE0B082800347008173E8600E0
:1010200001308700810108007C3020009B009A017C
:10103000911007309C0008007008173E86000130B0
:1010400087008101810A08001034A7340334F43486
:1010500017340034A034003400343C3026009300B0
:101060007C3091009201CF3025009E0508007C3035
:1010700028009D009C0120009311073028009E004D
:1010800008007008031945284628492822000C1436
:101090004B2822000C100800700803195028512812
:1010A000542822008E16562822008E1208008A31FB
:1010B000872288318B170B178031AE2088315C284E
:1010C0008031332801302200CD070030CE3DCF3DA6
:1010D000D03DD13DD23DD33DD43D08003830210034
:1010E000990098012200960121001A1F782879287A
:1010F0007428080021005F086004031980288128F3
:10110000862860088A005F080A00883108002200EB
:1011100057085804031D8D288E289228F230D700D6
:101120000830D8004D30080073082100DE00720836
:10113000DD00E030F0000930F1009731E22788311E
:10114000080070080319A528A628AA2821009215CE
:101150009115AD282100921191110800C030200096
:10116000B4003408AE00AF01230041088A004008F3
:101170000A0088310800A0302000B4003408AE0016
:10118000AF01230021088A0020080A0088310800E6
:10119000C0302000B4003408AE00AF01AF0A230015
:1011A00041088A0040080A0088310800A030200069
:1011B000B4003408AE00AF01AF0A230021088A0052
:1011C00020080A008831080070082F3E860002308F
:1011D0008700160001040319EE28F0280130F128D9
:1011E00000300800F101F8280130F0007008F10724
:1011F00020006E087102031CFE28FF28F428080056
:101200002030F5007508F1001230203E86000230D3
:101210008700413F8A00403F0A00893108003C3086
:1012200025009300950180309400023096009201D1
:101230007C3091001E08FC3902389E000800E33023
:10124000F0000030F100E830F2000030F30005302B
:10125000F4000030F5008B31542389310800200060
:10126000EC016708F7007708F5006708103E860074
:1012700002308700413F8A00403F0A008931080060
:1012800021006808F0007008E3006430F000700886
:10129000E40020006A082100E6002000690821001F
:1012A000E50008007C30280096009501200093108E
:1012B00021009314CA30F0001730F1009731E8276D
:1012C000893107302800970008002000911D692906
:1012D0006A29782921006D086E0403197029712983
:1012E00076296E088A006D080A0089312000911164
:1012F0000800403024009400053095009201210040
:1013000091156530F0000930F1009731E2278931FD
:1013100021000E142400951208007008383E860043
:101320000230870001080319962997299F29700820
:10133000383E86000230870081010130A02900304C
:101340000800FB00FA017B1CA629A729AB29780815
:10135000F9007908FA070310F80D0310FB0C7B085D
:10136000031DB329B429A3297A0808002030F90005
:101370007908F0001C30203E860002308700413F93
:101380008A00403F0A008931003A0319C829C92957
:10139000CA2964000800003400346934003464341D
:1013A000003400340034003400340034003400349D
:1013B0006234083400340034003400340034003423
:1013C0002000921DE429E529EF29921121009211B4
:1013D000911100002100911592159115F529210018
:1013E0005E088A005D080A00893108000130220089
:1013F0008C008E013A3021008C000B308E002300CF
:101400008E0112308C0024008C018E012100951376
:1014100022009D019E01080074081F3E86000230D4
:101420008700413F8A00403F0A008A31F500740876
:10143000313E86000230870001087506FE397506C8
:101440008100080024009512000000000000973180
:10145000D7278A3124009513322A1108F400740822
:101460002100E10024001418362A372A2D2A08000A
:1014700020002D08FD002C08FC00FD36FC0CFD367C
:10148000FC0C7C082600910020002C080339FC008D
:101490000430FC35890B492A26001308CF397C0417
:1014A0009300080020002D08FD002C08FC00FD36EC
:1014B000FC0CFD36FC0C7C082500910020002C085B
:1014C0000339FC000430FC35890B632A250013081E
:1014D000CF397C0493000800F400F201F3017F2A65
:1014E0007408860087010108F1007108F2070130D5
:1014F000F1007108F4070130F1007108F30770087A
:101500007302031C842A852A702A72080800893114
:1015100079218A318931F6218A3188316E208A31E8
:101520009731CF278A31883137208A3189310F218D
:101530008A31893152218A3188312D208A3188318E
:1015400014208A310800C030F1007108F000063024
:10155000C03E860001308700413F8A00403F0A00BC
:101560008A31A030F1007108F0000630A03E8600FC
:1015700001308700413F8A00403F0A008A3108005D
:10158000C030F1007108F0000830C03E8600013024
:101590008700413F8A00403F0A008A31A030F100B5
:1015A0007108F0000830A03E860001308700413FFE
:1015B0008A00403F0A008A31080020006B0886003C
:1015C00001308700403F2100D900413FDA00423F0F
:1015D000DB00433FDC0020006708F7007708F000DD
:1015E000E830F8007808F1000530F9007908F200D9
:1015F0006708860002308700413F8A00403F0A00AA
:101600008B310800003400346B3401340A34003468
:101610000034693401340B34C834083400340034E5
:101620003234AE340834003400343334D634083421
:10163000003400343434BB340834003400343534DE
:10164000C0340A34003400343734A3340A3400344C
:101650000034363420006B08860001308700403F9C
:101660002100D900413FDA00423FDB00433FDC006C
:1016700020006708FA007A08F100E330FB007B08DD
:10168000F2000530FC007C08F3006708023E86008B
:1016900002308700413F8A00403F0A008B317208C8
:1016A000F9007108F80008007308FB007208FA00DE
:1016B0007108F9007008F800732B7A0886007B081F
:1016C00087000108F6007608F7000130FA070030BD
:1016D000FB3D780886007908870077088100013093
:1016E000F8070030F93D0130F4020030F53B740A90
:1016F000031D7E2B750A031D7E2B7F2B5D2B08009F
:101700007C080319842B852BAF2B2000A00105300A
:10171000FD007D08F80020088931A1218B31A63E0B
:1017200086000230870001087C06031D982B992B48
:10173000A42B0530FD007D08F80020002008893129
:10174000A1218B31A23EB02B0130FD007D0820008D
:10175000A0070A302002031CAE2BAF2B872B0030D2
:1017600008000030FB000030FA000030F9000030C3
:10177000F800701CBC2BBD2BC52B7408F80775082E
:10178000F93D7608FA3D7708FB3D0130F435F50D5B
:10179000F60DF70D890BC62B0130F336F20CF10C68
:1017A000F00C890BCD2B7308720471047004031DB7
:1017B000DA2BDB2BB92B7B08F3007A08F2007908CF
:1017C000F1007808F000080047340E34003400348B
:1017D0000034003400340034003400340034003469
:1017E0000034003400340034003400340034003459
:1017F0000034003400340034003400340034003449
:101800000034003400340034003400340034003438
:101810000034003400340034003400340034003428
:101820000034003400340034003400340034003418
:1018300080340B347008193E860001308700403F29
:10184000F300413FF40072087406031D292C71084F
:10185000730603192C2C2D2C502C03307202E93006
:1018600003197102031C352C362C402C7008193ECC
:10187000860001308700E830C03F0330C13F492C6B
:101880007008193E8600013087007108C03F720859
:10189000C13F70081F3E8600013087008101810A28
:1018A0000800F601F701700871040319582C592C2F
:1018B000882CF501F50A652C0130F035F10D890B06
:1018C0005D2C0130F4007408F507F11F682C692CB9
:1018D0005C2C0130F635F70D890B6A2C7108730208
:1018E000031D742C70087202031C772C782C7D2C3D
:1018F0007008F2027108F33B76140130F136F00CF7
:10190000890B7E2C0130F502031D872C882C692C55
:101910007708F1007608F00008007008313E860074
:1019200002308700011C952C962CC82C7008323E82
:10193000860002308700403FF100413FF200423F05
:10194000F300433FF40020006D088600013087005B
:10195000403FF500413FF600423FF700433FF800AB
:101960007108F5027208F63B7308F73B7408F83B00
:101970007808031DC52C7708031DC52CA0307502FF
:101980000F30763B0318C52CC62CC82C0130C92C4F
:1019900000300800F00175082B3E860002308700F9
:1019A000413F8A00403F0A008C317508233E860083
:1019B00002308700413F8A00403F0A008C310F30DF
:1019C000F6007508313E86000230870076088100F7
:1019D000F0017508293E860002308700413F8A00E9
:1019E000403F0A008C3175082D3E8600023087008A
:1019F0000030C03FC13F75082F3E8600023087008F
:101A00000030C03FC13FF001F00A75082B3E860050
:101A100002308700413F8A00403F0A008D310800B4
:101A200020002E08163E86000130870001082F0690
:101A300003191B2D1C2D562DF430AC000130AD00C8
:101A40002E08143E860001308700413F8A00403F47
:101A50000A008D3102302000B0002E08183E8600AA
:101A600001308700300881002F08B0002E08163E94
:101A7000860001308700300881006F088600013041
:101A80008700403FB000413FB100423FB200433FBA
:101A9000B3002E081B3E8600013087003008C03F8F
:101AA0003108C13F3208C23F3308C33F0800F3008A
:101AB0002400951A5C2D5D2DA42D7308F000F10112
:101AC000F035F10DF035F10D0130700784009830DC
:101AD000713D8500000894007308F000F101F035B5
:101AE000F10DF035F10D0030700784009830713D34
:101AF00085000008950096017308F000F101F035AB
:101B0000F10DF035F10D0230700784009830713D11
:101B10008500000892007308F000F101F035F10D26
:101B2000F035F10D0330700784009830713D850069
:101B30000008F20021000E087206FE3972068E00BF
:101B4000240095160130A52D003008007008313EA4
:101B5000860002308700011CAE2DAF2DF12D7008DC
:101B60002D3E86000230870016000104031DB92DAA
:101B7000BA2DEC2D20006D08860001308700403F13
:101B8000F300413FF400423FF500433FF600700888
:101B9000323E8600023087007308C03F7408C13FA0
:101BA0007508C23F7608C33F7208F300F40170085D
:101BB0002D3E8600023087007308C03F7408C13F85
:101BC0007108F3007008363E860002308700730803
:101BD0008100F001F101F52DFE30F000FF30F10041
:101BE000F52DFF30F000FF30F100080020308600B6
:101BF0000330870040308400003085002030F00042
:101C000016001A00F00B002E10302000C0000D301E
:101C1000C1001A30C2000C30C300EE30C4001730CF
:101C2000C5000D30C6000830C7001C30C8000830A1
:101C3000C9000030CA000030CB000030CC000030BA
:101C4000CD000030CE000030CF007230D000023026
:101C5000D1002108D3002008D2002308D500220893
:101C6000D400D701D70AD801D901DA01DF01DF0A90
:101C7000403086000030870020308400003085002E
:101C80002030F00016001A00F00B422E08004830F9
:101C90008600013087002430840000308500053044
:101CA0002000A00016001A00A00B522EFF30F000FA
:101CB0000030F1003230F2000030F300A230863103
:101CC000BF268E31A230F0000230F1007C08F20015
:101CD0000130F3007D082000A000A1012008F400DD
:101CE0002108F5008B3154238E31243086000030DA
:101CF000870005302000A0002008F8007D08A10022
:101D0000A2012108F2002208F3000530F0000030A3
:101D1000F1008C3151248E3170088931A1218E312E
:101D2000A23E84000230850005302000A30016008A
:101D30001A00A30B972E0800033020002702B730AB
:101D400003192602031CA52EA62EA92EA601A70163
:101D5000042F00302702C830031926020318B12EC1
:101D6000B22EB72EF430A6000130A700042FFF30AA
:101D7000AB00FF30AA00FE30A9000C30A8002608F6
:101D8000F0002708F100890D893B8909F200F30072
:101D90002B08F7002A08F6002908F5002808F400A7
:101DA0008B31B1238E3173082000AB007208AA007A
:101DB0007108A9007008A8000030F3000030F2009C
:101DC0000330F100E830F0002B08F7002A08F60095
:101DD0002908F5002808F4008F3170278E31730828
:101DE0002000AB007208AA007108A9007008A800C2
:101DF000F430A8070130A93D0030AA3D0030AB3DCA
:101E00002908A7002808A60008007108313E8600AE
:101E100002308700011C0D2F0E2F6B2F71082F3EF3
:101E200086000230870016000104031D182F192FA9
:101E3000662F20006D08860001308700403FF400C7
:101E4000413FF500423FF600433FF7007108323E44
:101E50008600023087007408C03F7508C13F7608CD
:101E6000C23F7708C33F7308FF3EF400FF300318FA
:101E70000030F50071082F3E86000230870074089C
:101E8000C03F7508C13F7208F4007108373E8600F4
:101E900002308700740881007108373E86000230E6
:101EA0008700403F84008501810A0008F40074081F
:101EB000F0007108293E860002308700413F8A0009
:101EC000403F0A008F31F101F2016F2FFE30F10027
:101ED000FF30F2006F2FFF30F100FF30F2000800FA
:101EE0002000A101F31F752F762F832FF009F10930
:101EF000F209F309F00A0319F10A0319F20A0319A6
:101F0000F30AA101A10AF71F862F872F962FF40944
:101F1000F509F609F709F40A0319F50A0319F60A8F
:101F20000319F70A0130F8007808A1060030A5006F
:101F30000030A4000030A3000030A2007308720437
:101F4000710470040319A52FA62FE72FA001A00A82
:101F5000B42F0130F035F10DF20DF30D890BAA2FDE
:101F60000130F8007808A007F31FB72FB82FA92F6A
:101F70000130A235A30DA40DA50D890BB92F73084F
:101F80007702031DCD2F72087602031DCD2F710835
:101F90007502031DCD2F70087402031CD02FD12FA2
:101FA000DA2F7008F4027108F53B7208F63B7308EB
:101FB000F73B22140130F336F20CF10CF00C890BD4
:101FC000DB2F0130A002031DE62FE72FB82F2108D9
:101FD0000319EB2FEC2FF72FA209A309A409A509D8
:101FE000A20A0319A30A0319A40A0319A50A2508BA
:101FF000F3002408F2002308F1002208F000080092
:102F940008007008240091000800163021009700F2
:102FA4000800700824009100080000308D31572576
:102FB400973108002000931088317A209731080057
:102FC40071082100EE007008ED000800710821006E
:102FD400E0007008DF0008007008F10071082000AC
:102FE400EF0008007008F10071082000EB000800F1
:102FF4007008F10071082000ED0008000534403429
:04300400003401345F
:020000040001F9
:04000E00BA3FFF1FD7
:00000001FF
